{
  "contractName": "TodoList",
  "abi": [
    {
      "inputs": [],
      "payable": false,
      "stateMutability": "nonpayable",
      "type": "constructor"
    },
    {
      "anonymous": false,
      "inputs": [
        {
          "indexed": false,
          "internalType": "uint256",
          "name": "_id",
          "type": "uint256"
        },
        {
          "indexed": false,
          "internalType": "string",
          "name": "_taskName",
          "type": "string"
        },
        {
          "indexed": false,
          "internalType": "bool",
          "name": "_completed",
          "type": "bool"
        }
      ],
      "name": "TaskCompleted",
      "type": "event"
    },
    {
      "anonymous": false,
      "inputs": [
        {
          "indexed": false,
          "internalType": "uint256",
          "name": "_id",
          "type": "uint256"
        },
        {
          "indexed": false,
          "internalType": "string",
          "name": "_taskName",
          "type": "string"
        },
        {
          "indexed": false,
          "internalType": "bool",
          "name": "_completed",
          "type": "bool"
        }
      ],
      "name": "TaskCreated",
      "type": "event"
    },
    {
      "constant": true,
      "inputs": [],
      "name": "taskCount",
      "outputs": [
        {
          "internalType": "uint256",
          "name": "",
          "type": "uint256"
        }
      ],
      "payable": false,
      "stateMutability": "view",
      "type": "function"
    },
    {
      "constant": true,
      "inputs": [
        {
          "internalType": "uint256",
          "name": "",
          "type": "uint256"
        }
      ],
      "name": "tasks",
      "outputs": [
        {
          "internalType": "uint256",
          "name": "_id",
          "type": "uint256"
        },
        {
          "internalType": "string",
          "name": "_taskName",
          "type": "string"
        },
        {
          "internalType": "bool",
          "name": "_completed",
          "type": "bool"
        },
        {
          "internalType": "bool",
          "name": "_hide",
          "type": "bool"
        }
      ],
      "payable": false,
      "stateMutability": "view",
      "type": "function"
    },
    {
      "constant": true,
      "inputs": [],
      "name": "getTaskCount",
      "outputs": [
        {
          "internalType": "uint256",
          "name": "",
          "type": "uint256"
        }
      ],
      "payable": false,
      "stateMutability": "view",
      "type": "function"
    },
    {
      "constant": false,
      "inputs": [
        {
          "internalType": "string",
          "name": "_taskName",
          "type": "string"
        }
      ],
      "name": "addTask",
      "outputs": [],
      "payable": false,
      "stateMutability": "nonpayable",
      "type": "function"
    },
    {
      "constant": false,
      "inputs": [
        {
          "internalType": "uint256",
          "name": "_taskId",
          "type": "uint256"
        }
      ],
      "name": "toggleTaskStatus",
      "outputs": [],
      "payable": false,
      "stateMutability": "nonpayable",
      "type": "function"
    },
    {
      "constant": false,
      "inputs": [
        {
          "internalType": "uint256",
          "name": "_taskId",
          "type": "uint256"
        }
      ],
      "name": "hideTask",
      "outputs": [],
      "payable": false,
      "stateMutability": "nonpayable",
      "type": "function"
    },
    {
      "constant": false,
      "inputs": [],
      "name": "hideCompletedTask",
      "outputs": [],
      "payable": false,
      "stateMutability": "nonpayable",
      "type": "function"
    }
  ],
  "bytecode": "0x6080604052600080553480156200001557600080fd5b506200005c6040518060400160405280601081526020017f4578706c6f7265207468697320617070000000000000000000000000000000008152506200006260201b60201c565b6200036a565b6000808154809291906001019190505550600080549050620000836200016f565b60405180608001604052808381526020018481526020016000151581526020016000151581525090508060016000848152602001908152602001600020600082015181600001556020820151816001019080519060200190620000e89291906200019b565b5060408201518160020160006101000a81548160ff02191690831515021790555060608201518160020160016101000a81548160ff0219169083151502179055509050507f05d0fb833127fc08168556d0e7ca9554fc3f6bc843b3b7d2bf1c35aea6bab660828460006040516200016293929190620002ad565b60405180910390a1505050565b604051806080016040528060008152602001606081526020016000151581526020016000151581525090565b828054600181600116156101000203166002900490600052602060002090601f016020900481019282601f10620001de57805160ff19168380011785556200020f565b828001600101855582156200020f579182015b828111156200020e578251825591602001919060010190620001f1565b5b5090506200021e919062000222565b5090565b6200024791905b808211156200024357600081600090555060010162000229565b5090565b90565b62000255816200030d565b82525050565b60006200026882620002f1565b620002748185620002fc565b93506200028681856020860162000323565b620002918162000359565b840191505092915050565b620002a78162000319565b82525050565b6000606082019050620002c460008301866200029c565b8181036020830152620002d881856200025b565b9050620002e960408301846200024a565b949350505050565b600081519050919050565b600082825260208201905092915050565b60008115159050919050565b6000819050919050565b60005b838110156200034357808201518184015260208101905062000326565b8381111562000353576000848401525b50505050565b6000601f19601f8301169050919050565b61099f806200037a6000396000f3fe608060405234801561001057600080fd5b506004361061007d5760003560e01c8063753f80751161005b578063753f8075146100c45780638d977672146100e0578063b6cb58a514610113578063c17a340e146101315761007d565b80635357316e14610082578063672385621461009e57806373d5c450146100ba575b600080fd5b61009c6004803603610097919081019061061c565b61014f565b005b6100b860048036036100b391908101906105db565b610200565b005b6100c2610307565b005b6100de60048036036100d9919081019061061c565b61037f565b005b6100fa60048036036100f5919081019061061c565b6103b0565b60405161010a94939291906107bd565b60405180910390f35b61011b610492565b6040516101289190610764565b60405180910390f35b610139610498565b6040516101469190610764565b60405180910390f35b60006001600083815260200190815260200160002060020160009054906101000a900460ff169050600081159050806001600085815260200190815260200160002060020160006101000a81548160ff0219169083151502179055507fbc9b38ef3e28b52270aeb098b26eb25282dbc554fc9e8104a6b787bfa8f752408360016000868152602001908152602001600020600101836040516101f393929190610809565b60405180910390a1505050565b600080815480929190600101919050555060008054905061021f6104a1565b604051806080016040528083815260200184815260200160001515815260200160001515815250905080600160008481526020019081526020016000206000820151816000015560208201518160010190805190602001906102829291906104cd565b5060408201518160020160006101000a81548160ff02191690831515021790555060608201518160020160016101000a81548160ff0219169083151502179055509050507f05d0fb833127fc08168556d0e7ca9554fc3f6bc843b3b7d2bf1c35aea6bab660828460006040516102fa9392919061077f565b60405180910390a1505050565b6000600190505b600054811161037c576001600082815260200190815260200160002060020160009054906101000a900460ff161561036f57600180600083815260200190815260200160002060020160016101000a81548160ff0219169083151502179055505b808060010191505061030e565b50565b600180600083815260200190815260200160002060020160016101000a81548160ff02191690831515021790555050565b6001602052806000526040600020600091509050806000015490806001018054600181600116156101000203166002900480601f0160208091040260200160405190810160405280929190818152602001828054600181600116156101000203166002900480156104625780601f1061043757610100808354040283529160200191610462565b820191906000526020600020905b81548152906001019060200180831161044557829003601f168201915b5050505050908060020160009054906101000a900460ff16908060020160019054906101000a900460ff16905084565b60005481565b60008054905090565b604051806080016040528060008152602001606081526020016000151581526020016000151581525090565b828054600181600116156101000203166002900490600052602060002090601f016020900481019282601f1061050e57805160ff191683800117855561053c565b8280016001018555821561053c579182015b8281111561053b578251825591602001919060010190610520565b5b509050610549919061054d565b5090565b61056f91905b8082111561056b576000816000905550600101610553565b5090565b90565b600082601f83011261058357600080fd5b813561059661059182610874565b610847565b915080825260208301602083018583830111156105b257600080fd5b6105bd8382846108f2565b50505092915050565b6000813590506105d581610945565b92915050565b6000602082840312156105ed57600080fd5b600082013567ffffffffffffffff81111561060757600080fd5b61061384828501610572565b91505092915050565b60006020828403121561062e57600080fd5b600061063c848285016105c6565b91505092915050565b61064e816108dc565b82525050565b600061065f826108c0565b61066981856108cb565b9350610679818560208601610901565b61068281610934565b840191505092915050565b6000610698826108b5565b6106a281856108cb565b93506106b2818560208601610901565b6106bb81610934565b840191505092915050565b6000815460018116600081146106e357600181146107095761074d565b607f60028304166106f481876108cb565b955060ff19831686526020860193505061074d565b6002820461071781876108cb565b9550610722856108a0565b60005b8281101561074457815481890152600182019150602081019050610725565b80880195505050505b505092915050565b61075e816108e8565b82525050565b60006020820190506107796000830184610755565b92915050565b60006060820190506107946000830186610755565b81810360208301526107a68185610654565b90506107b56040830184610645565b949350505050565b60006080820190506107d26000830187610755565b81810360208301526107e4818661068d565b90506107f36040830185610645565b6108006060830184610645565b95945050505050565b600060608201905061081e6000830186610755565b818103602083015261083081856106c6565b905061083f6040830184610645565b949350505050565b6000604051905081810181811067ffffffffffffffff8211171561086a57600080fd5b8060405250919050565b600067ffffffffffffffff82111561088b57600080fd5b601f19601f8301169050602081019050919050565b60008190508160005260206000209050919050565b600081519050919050565b600081519050919050565b600082825260208201905092915050565b60008115159050919050565b6000819050919050565b82818337600083830152505050565b60005b8381101561091f578082015181840152602081019050610904565b8381111561092e576000848401525b50505050565b6000601f19601f8301169050919050565b61094e816108e8565b811461095957600080fd5b5056fea365627a7a7231582082a34418cc34583ec2e0a8cb75027d353833c1dfc5daa33fb778b0e23eab76866c6578706572696d656e74616cf564736f6c63430005100040",
  "source": "// SPDX-License-Identifier: MIT\npragma solidity >=0.4.21 <8.10.0;\npragma experimental ABIEncoderV2;\n\ncontract TodoList{\n  uint public taskCount = 0;\n\n  mapping (uint => Task) public tasks;\n\n  struct Task {\n    uint _id;\n    string _taskName;\n    bool _completed;\n    bool _hide;\n  }\n\n  event TaskCreated (\n    uint _id,\n    string _taskName,\n    bool _completed\n  );\n\n  event TaskCompleted (\n    uint _id,\n    string _taskName,\n    bool _completed\n  );\n\n  constructor() public {\n    addTask(\"Explore this app\");\n  }\n  \n  function getTaskCount() public view returns(uint){\n    return taskCount;\n  }\n  \n  function addTask(string memory _taskName) public {\n    taskCount++;\n    uint taskId = taskCount;\n    Task memory task = Task(taskId, _taskName, false, false);\n    tasks[taskId] = task;\n    emit TaskCreated(taskId, _taskName, false);\n  }\n\n  function toggleTaskStatus(uint _taskId) public {\n    bool currentStatus = tasks[_taskId]._completed;\n    bool updatedStatus = !currentStatus;\n    tasks[_taskId]._completed = updatedStatus;\n    emit TaskCompleted(_taskId, tasks[_taskId]._taskName, updatedStatus);\n  }\n\n    function hideTask(uint _taskId) public{\n      tasks[_taskId]._hide = true;\n  }\n\n  function hideCompletedTask() public{\n      for (uint i = 1; i <= taskCount; i++) {\n        if (tasks[i]._completed){\n          tasks[i]._hide = true;\n        }\n      }\n  }\n}",
  "sourcePath": "/Users/irenechow/Desktop/blockchain-learning/eth-todo-list-react/src/contracts/TodoList.sol",
  "compiler": {
    "name": "solc",
    "version": "0.5.16+commit.9c3226ce.Emscripten.clang"
  },
  "schemaVersion": "3.4.5",
  "updatedAt": "2022-03-10T00:20:55.954Z",
  "networkType": "ethereum",
  "devdoc": {
    "methods": {}
  },
  "userdoc": {
    "methods": {}
  }
}