{
  "contractName": "TodoList",
  "abi": [
    {
      "inputs": [],
      "payable": false,
      "stateMutability": "nonpayable",
      "type": "constructor"
    },
    {
      "anonymous": false,
      "inputs": [
        {
          "indexed": false,
          "internalType": "uint256",
          "name": "_id",
          "type": "uint256"
        },
        {
          "indexed": false,
          "internalType": "string",
          "name": "_taskName",
          "type": "string"
        },
        {
          "indexed": false,
          "internalType": "bool",
          "name": "_completed",
          "type": "bool"
        }
      ],
      "name": "TaskCompleted",
      "type": "event"
    },
    {
      "anonymous": false,
      "inputs": [
        {
          "indexed": false,
          "internalType": "uint256",
          "name": "_id",
          "type": "uint256"
        },
        {
          "indexed": false,
          "internalType": "string",
          "name": "_taskName",
          "type": "string"
        },
        {
          "indexed": false,
          "internalType": "bool",
          "name": "_completed",
          "type": "bool"
        }
      ],
      "name": "TaskCreated",
      "type": "event"
    },
    {
      "constant": true,
      "inputs": [],
      "name": "taskCount",
      "outputs": [
        {
          "internalType": "uint256",
          "name": "",
          "type": "uint256"
        }
      ],
      "payable": false,
      "stateMutability": "view",
      "type": "function"
    },
    {
      "constant": true,
      "inputs": [
        {
          "internalType": "uint256",
          "name": "",
          "type": "uint256"
        }
      ],
      "name": "tasks",
      "outputs": [
        {
          "internalType": "uint256",
          "name": "_id",
          "type": "uint256"
        },
        {
          "internalType": "string",
          "name": "_taskName",
          "type": "string"
        },
        {
          "internalType": "bool",
          "name": "_completed",
          "type": "bool"
        }
      ],
      "payable": false,
      "stateMutability": "view",
      "type": "function"
    },
    {
      "constant": true,
      "inputs": [],
      "name": "getTaskCount",
      "outputs": [
        {
          "internalType": "uint256",
          "name": "",
          "type": "uint256"
        }
      ],
      "payable": false,
      "stateMutability": "view",
      "type": "function"
    },
    {
      "constant": false,
      "inputs": [
        {
          "internalType": "string",
          "name": "_taskName",
          "type": "string"
        }
      ],
      "name": "addTask",
      "outputs": [],
      "payable": false,
      "stateMutability": "nonpayable",
      "type": "function"
    },
    {
      "constant": false,
      "inputs": [
        {
          "internalType": "uint256",
          "name": "_taskId",
          "type": "uint256"
        }
      ],
      "name": "toggleTaskStatus",
      "outputs": [],
      "payable": false,
      "stateMutability": "nonpayable",
      "type": "function"
    }
  ],
  "bytecode": "0x6080604052600080553480156200001557600080fd5b506200005c6040518060400160405280601081526020017f4578706c6f7265207468697320617070000000000000000000000000000000008152506200006260201b60201c565b62000338565b60008081548092919060010191905055506000805490506200008362000146565b60405180606001604052808381526020018481526020016000151581525090508060016000848152602001908152602001600020600082015181600001556020820151816001019080519060200190620000df92919062000169565b5060408201518160020160006101000a81548160ff0219169083151502179055509050507f05d0fb833127fc08168556d0e7ca9554fc3f6bc843b3b7d2bf1c35aea6bab6608284600060405162000139939291906200027b565b60405180910390a1505050565b604051806060016040528060008152602001606081526020016000151581525090565b828054600181600116156101000203166002900490600052602060002090601f016020900481019282601f10620001ac57805160ff1916838001178555620001dd565b82800160010185558215620001dd579182015b82811115620001dc578251825591602001919060010190620001bf565b5b509050620001ec9190620001f0565b5090565b6200021591905b8082111562000211576000816000905550600101620001f7565b5090565b90565b6200022381620002db565b82525050565b60006200023682620002bf565b620002428185620002ca565b935062000254818560208601620002f1565b6200025f8162000327565b840191505092915050565b6200027581620002e7565b82525050565b60006060820190506200029260008301866200026a565b8181036020830152620002a6818562000229565b9050620002b7604083018462000218565b949350505050565b600081519050919050565b600082825260208201905092915050565b60008115159050919050565b6000819050919050565b60005b8381101562000311578082015181840152602081019050620002f4565b8381111562000321576000848401525b50505050565b6000601f19601f8301169050919050565b61085680620003486000396000f3fe608060405234801561001057600080fd5b50600436106100575760003560e01c80635357316e1461005c57806367238562146100785780638d97767214610094578063b6cb58a5146100c6578063c17a340e146100e4575b600080fd5b610076600480360361007191908101906104e1565b610102565b005b610092600480360361008d91908101906104a0565b6101b3565b005b6100ae60048036036100a991908101906104e1565b610291565b6040516100bd93929190610682565b60405180910390f35b6100ce610360565b6040516100db9190610629565b60405180910390f35b6100ec610366565b6040516100f99190610629565b60405180910390f35b60006001600083815260200190815260200160002060020160009054906101000a900460ff169050600081159050806001600085815260200190815260200160002060020160006101000a81548160ff0219169083151502179055507fbc9b38ef3e28b52270aeb098b26eb25282dbc554fc9e8104a6b787bfa8f752408360016000868152602001908152602001600020600101836040516101a6939291906106c0565b60405180910390a1505050565b60008081548092919060010191905055506000805490506101d261036f565b6040518060600160405280838152602001848152602001600015158152509050806001600084815260200190815260200160002060008201518160000155602082015181600101908051906020019061022c929190610392565b5060408201518160020160006101000a81548160ff0219169083151502179055509050507f05d0fb833127fc08168556d0e7ca9554fc3f6bc843b3b7d2bf1c35aea6bab6608284600060405161028493929190610644565b60405180910390a1505050565b6001602052806000526040600020600091509050806000015490806001018054600181600116156101000203166002900480601f0160208091040260200160405190810160405280929190818152602001828054600181600116156101000203166002900480156103435780601f1061031857610100808354040283529160200191610343565b820191906000526020600020905b81548152906001019060200180831161032657829003601f168201915b5050505050908060020160009054906101000a900460ff16905083565b60005481565b60008054905090565b604051806060016040528060008152602001606081526020016000151581525090565b828054600181600116156101000203166002900490600052602060002090601f016020900481019282601f106103d357805160ff1916838001178555610401565b82800160010185558215610401579182015b828111156104005782518255916020019190600101906103e5565b5b50905061040e9190610412565b5090565b61043491905b80821115610430576000816000905550600101610418565b5090565b90565b600082601f83011261044857600080fd5b813561045b6104568261072b565b6106fe565b9150808252602083016020830185838301111561047757600080fd5b6104828382846107a9565b50505092915050565b60008135905061049a816107fc565b92915050565b6000602082840312156104b257600080fd5b600082013567ffffffffffffffff8111156104cc57600080fd5b6104d884828501610437565b91505092915050565b6000602082840312156104f357600080fd5b60006105018482850161048b565b91505092915050565b61051381610793565b82525050565b600061052482610777565b61052e8185610782565b935061053e8185602086016107b8565b610547816107eb565b840191505092915050565b600061055d8261076c565b6105678185610782565b93506105778185602086016107b8565b610580816107eb565b840191505092915050565b6000815460018116600081146105a857600181146105ce57610612565b607f60028304166105b98187610782565b955060ff198316865260208601935050610612565b600282046105dc8187610782565b95506105e785610757565b60005b82811015610609578154818901526001820191506020810190506105ea565b80880195505050505b505092915050565b6106238161079f565b82525050565b600060208201905061063e600083018461061a565b92915050565b6000606082019050610659600083018661061a565b818103602083015261066b8185610519565b905061067a604083018461050a565b949350505050565b6000606082019050610697600083018661061a565b81810360208301526106a98185610552565b90506106b8604083018461050a565b949350505050565b60006060820190506106d5600083018661061a565b81810360208301526106e7818561058b565b90506106f6604083018461050a565b949350505050565b6000604051905081810181811067ffffffffffffffff8211171561072157600080fd5b8060405250919050565b600067ffffffffffffffff82111561074257600080fd5b601f19601f8301169050602081019050919050565b60008190508160005260206000209050919050565b600081519050919050565b600081519050919050565b600082825260208201905092915050565b60008115159050919050565b6000819050919050565b82818337600083830152505050565b60005b838110156107d65780820151818401526020810190506107bb565b838111156107e5576000848401525b50505050565b6000601f19601f8301169050919050565b6108058161079f565b811461081057600080fd5b5056fea365627a7a7231582073c1e47840ec6c5f064324276a5ce5e50c6c2930cd0d779f8f1f25809ffebd236c6578706572696d656e74616cf564736f6c63430005100040",
  "source": "// SPDX-License-Identifier: MIT\npragma solidity >=0.4.21 <8.10.0;\npragma experimental ABIEncoderV2;\n\ncontract TodoList{\n  uint public taskCount = 0;\n\n  mapping (uint => Task) public tasks;\n\n  struct Task {\n    uint _id;\n    string _taskName;\n    bool _completed;\n  }\n\n  event TaskCreated (\n    uint _id,\n    string _taskName,\n    bool _completed\n  );\n\n  event TaskCompleted (\n    uint _id,\n    string _taskName,\n    bool _completed\n  );\n\n  constructor() public {\n    addTask(\"Explore this app\");\n  }\n  \n  function getTaskCount() public view returns(uint){\n    return taskCount;\n  }\n  \n  function addTask(string memory _taskName) public {\n    taskCount++;\n    uint taskId = taskCount;\n    Task memory task = Task(taskId, _taskName, false);\n    tasks[taskId] = task;\n    emit TaskCreated(taskId, _taskName, false);\n  }\n\n  function toggleTaskStatus(uint _taskId) public {\n    bool currentStatus = tasks[_taskId]._completed;\n    bool updatedStatus = !currentStatus;\n    tasks[_taskId]._completed = updatedStatus;\n    emit TaskCompleted(_taskId, tasks[_taskId]._taskName, updatedStatus);\n  }\n}",
  "sourcePath": "/Users/irenechow/Desktop/blockchain-learning/eth-todo-list-react/contracts/TodoList.sol",
  "compiler": {
    "name": "solc",
    "version": "0.5.16+commit.9c3226ce.Emscripten.clang"
  },
  "schemaVersion": "3.4.5",
  "updatedAt": "2022-03-09T18:02:59.921Z",
  "networkType": "ethereum",
  "devdoc": {
    "methods": {}
  },
  "userdoc": {
    "methods": {}
  }
}